{
  "contractName": "CevacToken",
  "abi": [
    {
      "constant": true,
      "inputs": [],
      "name": "name",
      "outputs": [
        {
          "name": "",
          "type": "string"
        }
      ],
      "payable": false,
      "stateMutability": "view",
      "type": "function"
    },
    {
      "constant": true,
      "inputs": [],
      "name": "numberOfBackers",
      "outputs": [
        {
          "name": "",
          "type": "uint256"
        }
      ],
      "payable": false,
      "stateMutability": "view",
      "type": "function"
    },
    {
      "constant": true,
      "inputs": [],
      "name": "btcraised",
      "outputs": [
        {
          "name": "",
          "type": "uint256"
        }
      ],
      "payable": false,
      "stateMutability": "view",
      "type": "function"
    },
    {
      "constant": true,
      "inputs": [],
      "name": "CevacFund",
      "outputs": [
        {
          "name": "",
          "type": "uint256"
        }
      ],
      "payable": false,
      "stateMutability": "view",
      "type": "function"
    },
    {
      "constant": true,
      "inputs": [],
      "name": "totalSupply",
      "outputs": [
        {
          "name": "",
          "type": "uint256"
        }
      ],
      "payable": false,
      "stateMutability": "view",
      "type": "function"
    },
    {
      "constant": true,
      "inputs": [],
      "name": "valueToBeSent",
      "outputs": [
        {
          "name": "",
          "type": "uint256"
        }
      ],
      "payable": false,
      "stateMutability": "view",
      "type": "function"
    },
    {
      "constant": true,
      "inputs": [],
      "name": "tokenCreationMax",
      "outputs": [
        {
          "name": "",
          "type": "uint256"
        }
      ],
      "payable": false,
      "stateMutability": "view",
      "type": "function"
    },
    {
      "constant": true,
      "inputs": [
        {
          "name": "",
          "type": "address"
        }
      ],
      "name": "ownership",
      "outputs": [
        {
          "name": "",
          "type": "bool"
        }
      ],
      "payable": false,
      "stateMutability": "view",
      "type": "function"
    },
    {
      "constant": true,
      "inputs": [
        {
          "name": "",
          "type": "address"
        }
      ],
      "name": "balances",
      "outputs": [
        {
          "name": "",
          "type": "uint256"
        }
      ],
      "payable": false,
      "stateMutability": "view",
      "type": "function"
    },
    {
      "constant": true,
      "inputs": [],
      "name": "decimals",
      "outputs": [
        {
          "name": "",
          "type": "uint256"
        }
      ],
      "payable": false,
      "stateMutability": "view",
      "type": "function"
    },
    {
      "constant": true,
      "inputs": [],
      "name": "version",
      "outputs": [
        {
          "name": "",
          "type": "string"
        }
      ],
      "payable": false,
      "stateMutability": "view",
      "type": "function"
    },
    {
      "constant": true,
      "inputs": [
        {
          "name": "",
          "type": "address"
        },
        {
          "name": "",
          "type": "address"
        }
      ],
      "name": "allowed",
      "outputs": [
        {
          "name": "",
          "type": "uint256"
        }
      ],
      "payable": false,
      "stateMutability": "view",
      "type": "function"
    },
    {
      "constant": true,
      "inputs": [],
      "name": "finalizedICO",
      "outputs": [
        {
          "name": "",
          "type": "bool"
        }
      ],
      "payable": false,
      "stateMutability": "view",
      "type": "function"
    },
    {
      "constant": true,
      "inputs": [],
      "name": "owner",
      "outputs": [
        {
          "name": "",
          "type": "address"
        }
      ],
      "payable": false,
      "stateMutability": "view",
      "type": "function"
    },
    {
      "constant": true,
      "inputs": [],
      "name": "usdraised",
      "outputs": [
        {
          "name": "",
          "type": "uint256"
        }
      ],
      "payable": false,
      "stateMutability": "view",
      "type": "function"
    },
    {
      "constant": true,
      "inputs": [],
      "name": "fundingEndBlock",
      "outputs": [
        {
          "name": "",
          "type": "uint256"
        }
      ],
      "payable": false,
      "stateMutability": "view",
      "type": "function"
    },
    {
      "constant": true,
      "inputs": [],
      "name": "symbol",
      "outputs": [
        {
          "name": "",
          "type": "string"
        }
      ],
      "payable": false,
      "stateMutability": "view",
      "type": "function"
    },
    {
      "constant": true,
      "inputs": [],
      "name": "ethraised",
      "outputs": [
        {
          "name": "",
          "type": "uint256"
        }
      ],
      "payable": false,
      "stateMutability": "view",
      "type": "function"
    },
    {
      "constant": true,
      "inputs": [],
      "name": "maxCapUSD",
      "outputs": [
        {
          "name": "",
          "type": "uint256"
        }
      ],
      "payable": false,
      "stateMutability": "view",
      "type": "function"
    },
    {
      "constant": true,
      "inputs": [],
      "name": "fundingStartBlock",
      "outputs": [
        {
          "name": "",
          "type": "uint256"
        }
      ],
      "payable": false,
      "stateMutability": "view",
      "type": "function"
    },
    {
      "constant": true,
      "inputs": [],
      "name": "minCapUSD",
      "outputs": [
        {
          "name": "",
          "type": "uint256"
        }
      ],
      "payable": false,
      "stateMutability": "view",
      "type": "function"
    },
    {
      "constant": false,
      "inputs": [
        {
          "name": "newOwner",
          "type": "address"
        }
      ],
      "name": "transferOwnership",
      "outputs": [],
      "payable": false,
      "stateMutability": "nonpayable",
      "type": "function"
    },
    {
      "constant": true,
      "inputs": [],
      "name": "istransferAllowed",
      "outputs": [
        {
          "name": "",
          "type": "bool"
        }
      ],
      "payable": false,
      "stateMutability": "view",
      "type": "function"
    },
    {
      "inputs": [
        {
          "name": "_fundingStartBlock",
          "type": "uint256"
        },
        {
          "name": "_fundingEndBlock",
          "type": "uint256"
        }
      ],
      "payable": false,
      "stateMutability": "nonpayable",
      "type": "constructor"
    },
    {
      "payable": true,
      "stateMutability": "payable",
      "type": "fallback"
    },
    {
      "anonymous": false,
      "inputs": [
        {
          "indexed": true,
          "name": "previousOwner",
          "type": "address"
        },
        {
          "indexed": true,
          "name": "newOwner",
          "type": "address"
        }
      ],
      "name": "OwnershipTransferred",
      "type": "event"
    },
    {
      "anonymous": false,
      "inputs": [
        {
          "indexed": true,
          "name": "_from",
          "type": "address"
        },
        {
          "indexed": true,
          "name": "_to",
          "type": "address"
        },
        {
          "indexed": false,
          "name": "_value",
          "type": "uint256"
        }
      ],
      "name": "Transfer",
      "type": "event"
    },
    {
      "anonymous": false,
      "inputs": [
        {
          "indexed": true,
          "name": "_owner",
          "type": "address"
        },
        {
          "indexed": true,
          "name": "_spender",
          "type": "address"
        },
        {
          "indexed": false,
          "name": "_value",
          "type": "uint256"
        }
      ],
      "name": "Approval",
      "type": "event"
    },
    {
      "constant": false,
      "inputs": [
        {
          "name": "_to",
          "type": "address"
        },
        {
          "name": "_value",
          "type": "uint256"
        }
      ],
      "name": "transfer",
      "outputs": [
        {
          "name": "success",
          "type": "bool"
        }
      ],
      "payable": false,
      "stateMutability": "nonpayable",
      "type": "function"
    },
    {
      "constant": false,
      "inputs": [
        {
          "name": "_value",
          "type": "uint256"
        }
      ],
      "name": "burnTokens",
      "outputs": [],
      "payable": false,
      "stateMutability": "nonpayable",
      "type": "function"
    },
    {
      "constant": false,
      "inputs": [
        {
          "name": "_newFundingEndBlock",
          "type": "uint256"
        }
      ],
      "name": "changeEndBlock",
      "outputs": [],
      "payable": false,
      "stateMutability": "nonpayable",
      "type": "function"
    },
    {
      "constant": false,
      "inputs": [
        {
          "name": "_newFundingStartBlock",
          "type": "uint256"
        }
      ],
      "name": "changeStartBlock",
      "outputs": [],
      "payable": false,
      "stateMutability": "nonpayable",
      "type": "function"
    },
    {
      "constant": false,
      "inputs": [
        {
          "name": "_newMinCap",
          "type": "uint256"
        }
      ],
      "name": "changeMinCapUSD",
      "outputs": [],
      "payable": false,
      "stateMutability": "nonpayable",
      "type": "function"
    },
    {
      "constant": false,
      "inputs": [
        {
          "name": "_newMaxCap",
          "type": "uint256"
        }
      ],
      "name": "changeMaxCapUSD",
      "outputs": [],
      "payable": false,
      "stateMutability": "nonpayable",
      "type": "function"
    },
    {
      "constant": false,
      "inputs": [
        {
          "name": "_from",
          "type": "address"
        },
        {
          "name": "_to",
          "type": "address"
        },
        {
          "name": "_value",
          "type": "uint256"
        }
      ],
      "name": "transferFrom",
      "outputs": [
        {
          "name": "success",
          "type": "bool"
        }
      ],
      "payable": false,
      "stateMutability": "nonpayable",
      "type": "function"
    },
    {
      "constant": false,
      "inputs": [
        {
          "name": "_person",
          "type": "address"
        },
        {
          "name": "value",
          "type": "uint256"
        }
      ],
      "name": "addToBalances",
      "outputs": [],
      "payable": false,
      "stateMutability": "nonpayable",
      "type": "function"
    },
    {
      "constant": false,
      "inputs": [
        {
          "name": "owners",
          "type": "address"
        }
      ],
      "name": "addToOwnership",
      "outputs": [],
      "payable": false,
      "stateMutability": "nonpayable",
      "type": "function"
    },
    {
      "constant": false,
      "inputs": [
        {
          "name": "owners",
          "type": "address"
        }
      ],
      "name": "removeFromOwnership",
      "outputs": [],
      "payable": false,
      "stateMutability": "nonpayable",
      "type": "function"
    },
    {
      "constant": true,
      "inputs": [
        {
          "name": "_owner",
          "type": "address"
        }
      ],
      "name": "balanceOf",
      "outputs": [
        {
          "name": "balance",
          "type": "uint256"
        }
      ],
      "payable": false,
      "stateMutability": "view",
      "type": "function"
    },
    {
      "constant": false,
      "inputs": [
        {
          "name": "_spender",
          "type": "address"
        },
        {
          "name": "_value",
          "type": "uint256"
        }
      ],
      "name": "approve",
      "outputs": [
        {
          "name": "success",
          "type": "bool"
        }
      ],
      "payable": false,
      "stateMutability": "nonpayable",
      "type": "function"
    },
    {
      "constant": true,
      "inputs": [
        {
          "name": "_owner",
          "type": "address"
        },
        {
          "name": "_spender",
          "type": "address"
        }
      ],
      "name": "allowance",
      "outputs": [
        {
          "name": "remaining",
          "type": "uint256"
        }
      ],
      "payable": false,
      "stateMutability": "view",
      "type": "function"
    },
    {
      "constant": false,
      "inputs": [
        {
          "name": "value",
          "type": "uint256"
        }
      ],
      "name": "increaseEthRaised",
      "outputs": [],
      "payable": false,
      "stateMutability": "nonpayable",
      "type": "function"
    },
    {
      "constant": false,
      "inputs": [
        {
          "name": "value",
          "type": "uint256"
        }
      ],
      "name": "increaseBTCRaised",
      "outputs": [],
      "payable": false,
      "stateMutability": "nonpayable",
      "type": "function"
    },
    {
      "constant": false,
      "inputs": [
        {
          "name": "value",
          "type": "uint256"
        }
      ],
      "name": "increaseUSDRaised",
      "outputs": [],
      "payable": false,
      "stateMutability": "nonpayable",
      "type": "function"
    },
    {
      "constant": false,
      "inputs": [],
      "name": "finalizeICO",
      "outputs": [],
      "payable": false,
      "stateMutability": "nonpayable",
      "type": "function"
    },
    {
      "constant": false,
      "inputs": [],
      "name": "enableTransfers",
      "outputs": [],
      "payable": false,
      "stateMutability": "nonpayable",
      "type": "function"
    },
    {
      "constant": false,
      "inputs": [],
      "name": "disableTransfers",
      "outputs": [],
      "payable": false,
      "stateMutability": "nonpayable",
      "type": "function"
    },
    {
      "constant": false,
      "inputs": [],
      "name": "finalizeICOOwner",
      "outputs": [],
      "payable": false,
      "stateMutability": "nonpayable",
      "type": "function"
    },
    {
      "constant": false,
      "inputs": [],
      "name": "isValid",
      "outputs": [
        {
          "name": "",
          "type": "bool"
        }
      ],
      "payable": false,
      "stateMutability": "nonpayable",
      "type": "function"
    }
  ],
  "bytecode": "0x60806040526040805190810160405280600381526020017f312e3000000000000000000000000000000000000000000000000000000000008152506002908051906020019062000051929190620001a3565b5060016003556000600460006101000a81548160ff0219169083151502179055506008600a0a636d6f230002600c55630c845880600e5563202fbf00600f553480156200009d57600080fd5b5060405160408062002392833981018060405281019080805190602001909291908051906020019092919050505033600160006101000a81548173ffffffffffffffffffffffffffffffffffffffff021916908373ffffffffffffffffffffffffffffffffffffffff1602179055506008600a0a63d693a4000260106000600160009054906101000a900473ffffffffffffffffffffffffffffffffffffffff1673ffffffffffffffffffffffffffffffffffffffff1673ffffffffffffffffffffffffffffffffffffffff168152602001908152602001600020819055506008600a0a63d693a4000260008190555081600a8190555080600b81905550505062000252565b828054600181600116156101000203166002900490600052602060002090601f016020900481019282601f10620001e657805160ff191683800117855562000217565b8280016001018555821562000217579182015b8281111562000216578251825591602001919060010190620001f9565b5b5090506200022691906200022a565b5090565b6200024f91905b808211156200024b57600081600090555060010162000231565b5090565b90565b61213080620002626000396000f30060806040526004361061021a576000357c0100000000000000000000000000000000000000000000000000000000900463ffffffff168063060f400b1461021f57806306fdde0314610262578063095ea7b3146102f25780630dbd527014610357578063112b466e146103825780631186560e146103ad57806312dd8700146103da57806318160ddd146104055780631b328100146104305780631f97c00e1461045b578063218a76671461048657806323b872dd146104d357806323cc75a81461055857806327d6d6e01461056f57806327e235e3146105ca578063313ce56714610621578063375e88bd1461064c5780633a67a0f614610679578063525426fd146106905780635437f098146106bd57806354fd4d50146106ea5780635c6581651461077a5780636d1b229d146107f157806370a082311461081e57806376197591146108755780637fe650b1146108a457806382222674146108bb5780638da5cb5b146108e8578063912148411461093f57806391b43d131461096a57806395d89b4114610995578063a9059cbb14610a25578063af35c6c714610a8a578063b7645ed414610aa1578063b9384f1214610ace578063bb5d40eb14610afb578063bed1cfcd14610b2a578063c376290414610b6d578063d5f5b78814610b98578063d648a64714610bc3578063dd62ed3e14610bee578063ded317a814610c65578063f2fde38b14610c90578063fa85d33e14610cd3575b600080fd5b34801561022b57600080fd5b50610260600480360381019080803573ffffffffffffffffffffffffffffffffffffffff169060200190929190505050610d02565b005b34801561026e57600080fd5b50610277610db9565b6040518080602001828103825283818151815260200191508051906020019080838360005b838110156102b757808201518184015260208101905061029c565b50505050905090810190601f1680156102e45780820380516001836020036101000a031916815260200191505b509250505060405180910390f35b3480156102fe57600080fd5b5061033d600480360381019080803573ffffffffffffffffffffffffffffffffffffffff16906020019092919080359060200190929190505050610df2565b604051808215151515815260200191505060405180910390f35b34801561036357600080fd5b5061036c610f93565b6040518082815260200191505060405180910390f35b34801561038e57600080fd5b50610397610f99565b6040518082815260200191505060405180910390f35b3480156103b957600080fd5b506103d860048036038101908080359060200190929190505050610f9f565b005b3480156103e657600080fd5b506103ef61100a565b6040518082815260200191505060405180910390f35b34801561041157600080fd5b5061041a611018565b6040518082815260200191505060405180910390f35b34801561043c57600080fd5b5061044561101e565b6040518082815260200191505060405180910390f35b34801561046757600080fd5b50610470611024565b6040518082815260200191505060405180910390f35b34801561049257600080fd5b506104d1600480360381019080803573ffffffffffffffffffffffffffffffffffffffff1690602001909291908035906020019092919050505061102a565b005b3480156104df57600080fd5b5061053e600480360381019080803573ffffffffffffffffffffffffffffffffffffffff169060200190929190803573ffffffffffffffffffffffffffffffffffffffff16906020019092919080359060200190929190505050611247565b604051808215151515815260200191505060405180910390f35b34801561056457600080fd5b5061056d6114f7565b005b34801561057b57600080fd5b506105b0600480360381019080803573ffffffffffffffffffffffffffffffffffffffff16906020019092919050505061159a565b604051808215151515815260200191505060405180910390f35b3480156105d657600080fd5b5061060b600480360381019080803573ffffffffffffffffffffffffffffffffffffffff1690602001909291905050506115ba565b6040518082815260200191505060405180910390f35b34801561062d57600080fd5b506106366115d2565b6040518082815260200191505060405180910390f35b34801561065857600080fd5b50610677600480360381019080803590602001909291905050506115d7565b005b34801561068557600080fd5b5061068e611642565b005b34801561069c57600080fd5b506106bb600480360381019080803590602001909291905050506116bb565b005b3480156106c957600080fd5b506106e860048036038101908080359060200190929190505050611726565b005b3480156106f657600080fd5b506106ff61178c565b6040518080602001828103825283818151815260200191508051906020019080838360005b8381101561073f578082015181840152602081019050610724565b50505050905090810190601f16801561076c5780820380516001836020036101000a031916815260200191505b509250505060405180910390f35b34801561078657600080fd5b506107db600480360381019080803573ffffffffffffffffffffffffffffffffffffffff169060200190929190803573ffffffffffffffffffffffffffffffffffffffff16906020019092919050505061182a565b6040518082815260200191505060405180910390f35b3480156107fd57600080fd5b5061081c6004803603810190808035906020019092919050505061184f565b005b34801561082a57600080fd5b5061085f600480360381019080803573ffffffffffffffffffffffffffffffffffffffff16906020019092919050505061193e565b6040518082815260200191505060405180910390f35b34801561088157600080fd5b5061088a611987565b604051808215151515815260200191505060405180910390f35b3480156108b057600080fd5b506108b961199a565b005b3480156108c757600080fd5b506108e660048036038101908080359060200190929190505050611a2e565b005b3480156108f457600080fd5b506108fd611a94565b604051808273ffffffffffffffffffffffffffffffffffffffff1673ffffffffffffffffffffffffffffffffffffffff16815260200191505060405180910390f35b34801561094b57600080fd5b50610954611aba565b6040518082815260200191505060405180910390f35b34801561097657600080fd5b5061097f611ac0565b6040518082815260200191505060405180910390f35b3480156109a157600080fd5b506109aa611ac6565b6040518080602001828103825283818151815260200191508051906020019080838360005b838110156109ea5780820151818401526020810190506109cf565b50505050905090810190601f168015610a175780820380516001836020036101000a031916815260200191505b509250505060405180910390f35b348015610a3157600080fd5b50610a70600480360381019080803573ffffffffffffffffffffffffffffffffffffffff16906020019092919080359060200190929190505050611aff565b604051808215151515815260200191505060405180910390f35b348015610a9657600080fd5b50610a9f611c9c565b005b348015610aad57600080fd5b50610acc60048036038101908080359060200190929190505050611d15565b005b348015610ada57600080fd5b50610af960048036038101908080359060200190929190505050611d7b565b005b348015610b0757600080fd5b50610b10611de1565b604051808215151515815260200191505060405180910390f35b348015610b3657600080fd5b50610b6b600480360381019080803573ffffffffffffffffffffffffffffffffffffffff169060200190929190505050611e0c565b005b348015610b7957600080fd5b50610b82611ec3565b6040518082815260200191505060405180910390f35b348015610ba457600080fd5b50610bad611ec9565b6040518082815260200191505060405180910390f35b348015610bcf57600080fd5b50610bd8611ecf565b6040518082815260200191505060405180910390f35b348015610bfa57600080fd5b50610c4f600480360381019080803573ffffffffffffffffffffffffffffffffffffffff169060200190929190803573ffffffffffffffffffffffffffffffffffffffff169060200190929190505050611ed5565b6040518082815260200191505060405180910390f35b348015610c7157600080fd5b50610c7a611f5c565b6040518082815260200191505060405180910390f35b348015610c9c57600080fd5b50610cd1600480360381019080803573ffffffffffffffffffffffffffffffffffffffff169060200190929190505050611f62565b005b348015610cdf57600080fd5b50610ce86120ba565b604051808215151515815260200191505060405180910390f35b600160009054906101000a900473ffffffffffffffffffffffffffffffffffffffff1673ffffffffffffffffffffffffffffffffffffffff163373ffffffffffffffffffffffffffffffffffffffff16141515610d5e57600080fd5b6000600d60008373ffffffffffffffffffffffffffffffffffffffff1673ffffffffffffffffffffffffffffffffffffffff16815260200190815260200160002060006101000a81548160ff02191690831515021790555050565b6040805190810160405280600b81526020017f436576616320546f6b656e00000000000000000000000000000000000000000081525081565b6000604060048101600036905010151515610e0c57600080fd5b6000831480610e9757506000601160003373ffffffffffffffffffffffffffffffffffffffff1673ffffffffffffffffffffffffffffffffffffffff16815260200190815260200160002060008673ffffffffffffffffffffffffffffffffffffffff1673ffffffffffffffffffffffffffffffffffffffff16815260200190815260200160002054145b1515610ea257600080fd5b82601160003373ffffffffffffffffffffffffffffffffffffffff1673ffffffffffffffffffffffffffffffffffffffff16815260200190815260200160002060008673ffffffffffffffffffffffffffffffffffffffff1673ffffffffffffffffffffffffffffffffffffffff168152602001908152602001600020819055508373ffffffffffffffffffffffffffffffffffffffff163373ffffffffffffffffffffffffffffffffffffffff167f8c5be1e5ebec7d5bd14f71427d1e84f3dd0314c0f7b2291e5b200ac8c7c3b925856040518082815260200191505060405180910390a3600191505092915050565b60085481565b60065481565b600d60003373ffffffffffffffffffffffffffffffffffffffff1673ffffffffffffffffffffffffffffffffffffffff16815260200190815260200160002060009054906101000a900460ff161515610ff757600080fd5b8060056000828254019250508190555050565b6008600a0a63d693a4000281565b60005481565b60035481565b600c5481565b600d60003373ffffffffffffffffffffffffffffffffffffffff1673ffffffffffffffffffffffffffffffffffffffff16815260200190815260200160002060009054906101000a900460ff16151561108257600080fd5b6110ed60106000600160009054906101000a900473ffffffffffffffffffffffffffffffffffffffff1673ffffffffffffffffffffffffffffffffffffffff1673ffffffffffffffffffffffffffffffffffffffff16815260200190815260200160002054826120cd565b60106000600160009054906101000a900473ffffffffffffffffffffffffffffffffffffffff1673ffffffffffffffffffffffffffffffffffffffff1673ffffffffffffffffffffffffffffffffffffffff1681526020019081526020016000208190555061119b601060008473ffffffffffffffffffffffffffffffffffffffff1673ffffffffffffffffffffffffffffffffffffffff16815260200190815260200160002054826120e6565b601060008473ffffffffffffffffffffffffffffffffffffffff1673ffffffffffffffffffffffffffffffffffffffff168152602001908152602001600020819055508173ffffffffffffffffffffffffffffffffffffffff163073ffffffffffffffffffffffffffffffffffffffff167fddf252ad1be2c89b69c2b068fc378daa952ba7f163c4a11628f55a4df523b3ef836040518082815260200191505060405180910390a35050565b600060606004810160003690501015151561126157600080fd5b600960009054906101000a900460ff16151561127c57600080fd5b82601060008773ffffffffffffffffffffffffffffffffffffffff1673ffffffffffffffffffffffffffffffffffffffff1681526020019081526020016000205410158015611347575082601160008773ffffffffffffffffffffffffffffffffffffffff1673ffffffffffffffffffffffffffffffffffffffff16815260200190815260200160002060003373ffffffffffffffffffffffffffffffffffffffff1673ffffffffffffffffffffffffffffffffffffffff1681526020019081526020016000205410155b80156113535750600083115b156114ea5782601060008673ffffffffffffffffffffffffffffffffffffffff1673ffffffffffffffffffffffffffffffffffffffff1681526020019081526020016000206000828254019250508190555082601060008773ffffffffffffffffffffffffffffffffffffffff1673ffffffffffffffffffffffffffffffffffffffff1681526020019081526020016000206000828254039250508190555082601160008773ffffffffffffffffffffffffffffffffffffffff1673ffffffffffffffffffffffffffffffffffffffff16815260200190815260200160002060003373ffffffffffffffffffffffffffffffffffffffff1673ffffffffffffffffffffffffffffffffffffffff168152602001908152602001600020600082825403925050819055508373ffffffffffffffffffffffffffffffffffffffff168573ffffffffffffffffffffffffffffffffffffffff167fddf252ad1be2c89b69c2b068fc378daa952ba7f163c4a11628f55a4df523b3ef856040518082815260200191505060405180910390a3600191506114ef565b600091505b509392505050565b600d60003373ffffffffffffffffffffffffffffffffffffffff1673ffffffffffffffffffffffffffffffffffffffff16815260200190815260200160002060009054906101000a900460ff16151561154f57600080fd5b600e546007541015151561156257600080fd5b6001600460006101000a81548160ff0219169083151502179055506001600960006101000a81548160ff021916908315150217905550565b600d6020528060005260406000206000915054906101000a900460ff1681565b60106020528060005260406000206000915090505481565b600881565b600d60003373ffffffffffffffffffffffffffffffffffffffff1673ffffffffffffffffffffffffffffffffffffffff16815260200190815260200160002060009054906101000a900460ff16151561162f57600080fd5b8060066000828254019250508190555050565b600160009054906101000a900473ffffffffffffffffffffffffffffffffffffffff1673ffffffffffffffffffffffffffffffffffffffff163373ffffffffffffffffffffffffffffffffffffffff1614151561169e57600080fd5b6000600960006101000a81548160ff021916908315150217905550565b600d60003373ffffffffffffffffffffffffffffffffffffffff1673ffffffffffffffffffffffffffffffffffffffff16815260200190815260200160002060009054906101000a900460ff16151561171357600080fd5b8060076000828254019250508190555050565b600160009054906101000a900473ffffffffffffffffffffffffffffffffffffffff1673ffffffffffffffffffffffffffffffffffffffff163373ffffffffffffffffffffffffffffffffffffffff1614151561178257600080fd5b80600a8190555050565b60028054600181600116156101000203166002900480601f0160208091040260200160405190810160405280929190818152602001828054600181600116156101000203166002900480156118225780601f106117f757610100808354040283529160200191611822565b820191906000526020600020905b81548152906001019060200180831161180557829003601f168201915b505050505081565b6011602052816000526040600020602052806000526040600020600091509150505481565b80601060003373ffffffffffffffffffffffffffffffffffffffff1673ffffffffffffffffffffffffffffffffffffffff168152602001908152602001600020541015151561189d57600080fd5b6118e6601060003373ffffffffffffffffffffffffffffffffffffffff1673ffffffffffffffffffffffffffffffffffffffff16815260200190815260200160002054826120cd565b601060003373ffffffffffffffffffffffffffffffffffffffff1673ffffffffffffffffffffffffffffffffffffffff16815260200190815260200160002081905550611935600054826120cd565b60008190555050565b6000601060008373ffffffffffffffffffffffffffffffffffffffff1673ffffffffffffffffffffffffffffffffffffffff168152602001908152602001600020549050919050565b600460009054906101000a900460ff1681565b600160009054906101000a900473ffffffffffffffffffffffffffffffffffffffff1673ffffffffffffffffffffffffffffffffffffffff163373ffffffffffffffffffffffffffffffffffffffff161415156119f657600080fd5b6001600460006101000a81548160ff0219169083151502179055506001600960006101000a81548160ff021916908315150217905550565b600160009054906101000a900473ffffffffffffffffffffffffffffffffffffffff1673ffffffffffffffffffffffffffffffffffffffff163373ffffffffffffffffffffffffffffffffffffffff16141515611a8a57600080fd5b80600b8190555050565b600160009054906101000a900473ffffffffffffffffffffffffffffffffffffffff1681565b60075481565b600b5481565b6040805190810160405280600581526020017f434556414300000000000000000000000000000000000000000000000000000081525081565b6000604060048101600036905010151515611b1957600080fd5b600960009054906101000a900460ff161515611b3457600080fd5b82601060003373ffffffffffffffffffffffffffffffffffffffff1673ffffffffffffffffffffffffffffffffffffffff1681526020019081526020016000205410158015611b835750600083115b15611c905782601060003373ffffffffffffffffffffffffffffffffffffffff1673ffffffffffffffffffffffffffffffffffffffff1681526020019081526020016000206000828254039250508190555082601060008673ffffffffffffffffffffffffffffffffffffffff1673ffffffffffffffffffffffffffffffffffffffff168152602001908152602001600020600082825401925050819055508373ffffffffffffffffffffffffffffffffffffffff163373ffffffffffffffffffffffffffffffffffffffff167fddf252ad1be2c89b69c2b068fc378daa952ba7f163c4a11628f55a4df523b3ef856040518082815260200191505060405180910390a360019150611c95565b600091505b5092915050565b600160009054906101000a900473ffffffffffffffffffffffffffffffffffffffff1673ffffffffffffffffffffffffffffffffffffffff163373ffffffffffffffffffffffffffffffffffffffff16141515611cf857600080fd5b6001600960006101000a81548160ff021916908315150217905550565b600160009054906101000a900473ffffffffffffffffffffffffffffffffffffffff1673ffffffffffffffffffffffffffffffffffffffff163373ffffffffffffffffffffffffffffffffffffffff16141515611d7157600080fd5b80600f8190555050565b600160009054906101000a900473ffffffffffffffffffffffffffffffffffffffff1673ffffffffffffffffffffffffffffffffffffffff163373ffffffffffffffffffffffffffffffffffffffff16141515611dd757600080fd5b80600e8190555050565b6000600a544210158015611df65750600b5442105b15611e045760019050611e09565b600090505b90565b600160009054906101000a900473ffffffffffffffffffffffffffffffffffffffff1673ffffffffffffffffffffffffffffffffffffffff163373ffffffffffffffffffffffffffffffffffffffff16141515611e6857600080fd5b6001600d60008373ffffffffffffffffffffffffffffffffffffffff1673ffffffffffffffffffffffffffffffffffffffff16815260200190815260200160002060006101000a81548160ff02191690831515021790555050565b60055481565b600f5481565b600a5481565b6000601160008473ffffffffffffffffffffffffffffffffffffffff1673ffffffffffffffffffffffffffffffffffffffff16815260200190815260200160002060008373ffffffffffffffffffffffffffffffffffffffff1673ffffffffffffffffffffffffffffffffffffffff16815260200190815260200160002054905092915050565b600e5481565b600160009054906101000a900473ffffffffffffffffffffffffffffffffffffffff1673ffffffffffffffffffffffffffffffffffffffff163373ffffffffffffffffffffffffffffffffffffffff16141515611fbe57600080fd5b600073ffffffffffffffffffffffffffffffffffffffff168173ffffffffffffffffffffffffffffffffffffffff1614151515611ffa57600080fd5b8073ffffffffffffffffffffffffffffffffffffffff16600160009054906101000a900473ffffffffffffffffffffffffffffffffffffffff1673ffffffffffffffffffffffffffffffffffffffff167f8be0079c531659141344cd1fd0a4f28419497f9722a3daafe3b4186f6b6457e060405160405180910390a380600160006101000a81548173ffffffffffffffffffffffffffffffffffffffff021916908373ffffffffffffffffffffffffffffffffffffffff16021790555050565b600960009054906101000a900460ff1681565b60008282111515156120db57fe5b818303905092915050565b60008082840190508381101515156120fa57fe5b80915050929150505600a165627a7a72305820b7ef450e86a35f0a5d84ab30b05f003853c22bcbc8bba969f631ed903debb5e00029",
  "source": "pragma solidity ^0.4.18;\n\nimport './SafeMath.sol';\nimport './Ownable.sol';\nimport './Pausable.sol';\n\n\ncontract Token {\n    uint256 public totalSupply;\n    function balanceOf(address _owner) constant returns (uint256 balance);\n    function transfer(address _to, uint256 _value) returns (bool success);\n    function transferFrom(address _from, address _to, uint256 _value) returns (bool success);\n    function approve(address _spender, uint256 _value) returns (bool success);\n    function allowance(address _owner, address _spender) constant returns (uint256 remaining);\n    event Transfer(address indexed _from, address indexed _to, uint256 _value);\n    event Approval(address indexed _owner, address indexed _spender, uint256 _value);\n}\n\n\n/*  ERC 20 token */\ncontract CevacToken is Token,Ownable {\n    string public constant name = \"Cevac Token\";\n    string public constant symbol = \"CEVAC\";\n    uint256 public constant decimals = 8;\n    string public version = \"1.0\";\n    uint public valueToBeSent = 1;\n\n    bool public finalizedICO = false;\n\n    uint256 public ethraised;\n    uint256 public btcraised;\n    uint256 public usdraised;\n\n\n    uint256 public numberOfBackers;\n\n    bool public istransferAllowed;\n\n    uint256 public constant CevacFund = 36 * (10**8) * 10**decimals; \n    uint256 public fundingStartBlock; // crowdsale start unix //now\n    uint256 public fundingEndBlock; // crowdsale end unix //1530403200 //07/01/2018 @ 12:00am (UTC)\n    uint256 public tokenCreationMax= 1836 * (10**6) * 10**decimals;//TODO\n    mapping (address => bool) public ownership;\n    uint256 public minCapUSD = 210000000;\n    uint256 public maxCapUSD = 540000000;\n\n\n    mapping (address => uint256) public balances;\n    mapping (address => mapping (address => uint256)) public allowed;\n\n    modifier onlyPayloadSize(uint size) {\n        require(msg.data.length >= size + 4);\n        _;\n    }\n\n    function transfer(address _to, uint256 _value) onlyPayloadSize(2 * 32) returns (bool success) {\n      if(!istransferAllowed) throw;\n      if (balances[msg.sender] >= _value && _value > 0) {\n        balances[msg.sender] -= _value;\n        balances[_to] += _value;\n        Transfer(msg.sender, _to, _value);\n        return true;\n      } else {\n        return false;\n      }\n    }\n\n    function burnTokens(uint256 _value) public{\n        require(balances[msg.sender]>=_value);\n        balances[msg.sender] = SafeMath.sub(balances[msg.sender],_value);\n        totalSupply =SafeMath.sub(totalSupply,_value);\n    }\n\n\n    //this is the default constructor\n    function CevacToken(uint256 _fundingStartBlock, uint256 _fundingEndBlock){\n        balances[owner] = CevacFund;\n        totalSupply = CevacFund;\n        fundingStartBlock = _fundingStartBlock;\n        fundingEndBlock = _fundingEndBlock;\n       \n\n    }\n\n    ///change the funding end block\n    function changeEndBlock(uint256 _newFundingEndBlock) public onlyOwner{\n        fundingEndBlock = _newFundingEndBlock;\n    }\n\n    ///change the funding start block\n    function changeStartBlock(uint256 _newFundingStartBlock) public onlyOwner{\n        fundingStartBlock = _newFundingStartBlock;\n    }\n\n    ///the Min Cap USD \n    ///function too chage the miin cap usd\n    function changeMinCapUSD(uint256 _newMinCap) public onlyOwner{\n        minCapUSD = _newMinCap;\n    }\n\n\n    ///fucntion to change the max cap usd\n    function changeMaxCapUSD(uint256 _newMaxCap) public onlyOwner{\n        maxCapUSD = _newMaxCap;\n    }\n\n\n    function transferFrom(address _from, address _to, uint256 _value) onlyPayloadSize(3 * 32) returns (bool success) {\n      if(!istransferAllowed) throw;\n      if (balances[_from] >= _value && allowed[_from][msg.sender] >= _value && _value > 0) {\n        balances[_to] += _value;\n        balances[_from] -= _value;\n        allowed[_from][msg.sender] -= _value;\n        Transfer(_from, _to, _value);\n        return true;\n      } else {\n        return false;\n      }\n    }\n\n\n    function addToBalances(address _person,uint256 value) {\n        if(!ownership[msg.sender]) throw;\n        balances[owner] = SafeMath.sub(balances[owner],value);\n        balances[_person] = SafeMath.add(balances[_person],value);\n        Transfer(address(this), _person, value);\n    }\n\n    /**\n    This is to add the token sale platform ownership to send tokens\n    **/\n    function addToOwnership(address owners) onlyOwner{\n        ownership[owners] = true;\n    }\n\n    /**\n    To be done after killing the old conttract else conflicts can take place\n    This is to remove the token sale platform ownership to send tokens\n    **/\n    function removeFromOwnership(address owners) onlyOwner{\n        ownership[owners] = false;\n    }\n\n    function balanceOf(address _owner) view returns (uint256 balance) {\n        return balances[_owner];\n    }\n\n    function approve(address _spender, uint256 _value) onlyPayloadSize(2 * 32) returns (bool success) {\n        require((_value == 0) || (allowed[msg.sender][_spender] == 0));\n        allowed[msg.sender][_spender] = _value;\n        Approval(msg.sender, _spender, _value);\n        return true;\n    }\n\n    function allowance(address _owner, address _spender) view returns (uint256 remaining) {\n      return allowed[_owner][_spender];\n    }\n\n    function increaseEthRaised(uint256 value){\n        require(ownership[msg.sender]);\n        ethraised+=value;\n    }\n\n    function increaseBTCRaised(uint256 value){\n        require(ownership[msg.sender]);\n        btcraised+=value;\n    }\n\n    function increaseUSDRaised(uint256 value){\n        require(ownership[msg.sender]);\n        usdraised+=value;\n    }\n\n    function finalizeICO() public{\n    require(ownership[msg.sender]);\n    require(usdraised>=minCapUSD);\n    finalizedICO = true;\n    istransferAllowed = true;\n    }\n\n    function enableTransfers() public onlyOwner{\n        istransferAllowed = true;\n    }\n\n    function disableTransfers() public onlyOwner{\n        istransferAllowed = false;\n    }\n\n    //functiion to force finalize the ICO by the owner no checks called here\n    function finalizeICOOwner() onlyOwner{\n        finalizedICO = true;\n        istransferAllowed = true;\n    }\n\n    function isValid() returns(bool){\n        if(now>=fundingStartBlock && now<fundingEndBlock ){\n            return true;\n        }else{\n            return false;\n        }\n        if(usdraised>maxCapUSD) throw;\n    }\n\n    ///do not allow payments on this address\n\n    function() payable{\n        throw;\n    }\n}\n\n",
  "sourcePath": "/Users/mukuljain/turing/Cevac-contract/contracts/CevacToken.sol",
  "compiler": {
    "name": "solc",
    "version": "0.4.24+commit.e67f0147.Emscripten.clang"
  },
  "schemaVersion": "2.0.0",
  "updatedAt": "2018-06-10T05:40:25.027Z"
}