{
  "contractName": "PricingStrategy",
  "abi": [
    {
      "constant": true,
      "inputs": [],
      "name": "exchangeRate",
      "outputs": [
        {
          "name": "",
          "type": "uint256"
        }
      ],
      "payable": false,
      "stateMutability": "view",
      "type": "function"
    },
    {
      "constant": true,
      "inputs": [],
      "name": "called",
      "outputs": [
        {
          "name": "",
          "type": "bool"
        }
      ],
      "payable": false,
      "stateMutability": "view",
      "type": "function"
    },
    {
      "constant": true,
      "inputs": [],
      "name": "ETHUSD",
      "outputs": [
        {
          "name": "",
          "type": "uint256"
        }
      ],
      "payable": false,
      "stateMutability": "view",
      "type": "function"
    },
    {
      "constant": true,
      "inputs": [],
      "name": "owner",
      "outputs": [
        {
          "name": "",
          "type": "address"
        }
      ],
      "payable": false,
      "stateMutability": "view",
      "type": "function"
    },
    {
      "constant": true,
      "inputs": [
        {
          "name": "",
          "type": "uint256"
        }
      ],
      "name": "statePrices",
      "outputs": [
        {
          "name": "",
          "type": "uint256"
        }
      ],
      "payable": false,
      "stateMutability": "view",
      "type": "function"
    },
    {
      "constant": false,
      "inputs": [
        {
          "name": "newOwner",
          "type": "address"
        }
      ],
      "name": "transferOwnership",
      "outputs": [],
      "payable": false,
      "stateMutability": "nonpayable",
      "type": "function"
    },
    {
      "constant": true,
      "inputs": [],
      "name": "BTCUSD",
      "outputs": [
        {
          "name": "",
          "type": "uint256"
        }
      ],
      "payable": false,
      "stateMutability": "view",
      "type": "function"
    },
    {
      "inputs": [],
      "payable": false,
      "stateMutability": "nonpayable",
      "type": "constructor"
    },
    {
      "payable": true,
      "stateMutability": "payable",
      "type": "fallback"
    },
    {
      "anonymous": false,
      "inputs": [
        {
          "indexed": false,
          "name": "s",
          "type": "uint256"
        }
      ],
      "name": "logval",
      "type": "event"
    },
    {
      "anonymous": false,
      "inputs": [
        {
          "indexed": true,
          "name": "previousOwner",
          "type": "address"
        },
        {
          "indexed": true,
          "name": "newOwner",
          "type": "address"
        }
      ],
      "name": "OwnershipTransferred",
      "type": "event"
    },
    {
      "constant": false,
      "inputs": [
        {
          "name": "btcusd",
          "type": "uint256"
        },
        {
          "name": "ethusd",
          "type": "uint256"
        }
      ],
      "name": "getLatest",
      "outputs": [],
      "payable": false,
      "stateMutability": "nonpayable",
      "type": "function"
    },
    {
      "constant": false,
      "inputs": [
        {
          "name": "state",
          "type": "uint256"
        },
        {
          "name": "price",
          "type": "uint256"
        }
      ],
      "name": "changeStatePrices",
      "outputs": [],
      "payable": false,
      "stateMutability": "nonpayable",
      "type": "function"
    },
    {
      "constant": false,
      "inputs": [
        {
          "name": "state",
          "type": "uint256"
        },
        {
          "name": "contribution",
          "type": "uint256"
        },
        {
          "name": "types",
          "type": "string"
        }
      ],
      "name": "totalDiscount",
      "outputs": [
        {
          "name": "",
          "type": "uint256"
        },
        {
          "name": "",
          "type": "uint256"
        }
      ],
      "payable": false,
      "stateMutability": "nonpayable",
      "type": "function"
    }
  ],
  "bytecode": "0x608060405261024460015561232860025534801561001c57600080fd5b50336000806101000a81548173ffffffffffffffffffffffffffffffffffffffff021916908373ffffffffffffffffffffffffffffffffffffffff16021790555063097607106005600080815260200190815260200160002081905550632b01376060056000600181526020019081526020016000208190555063157fd860600560006002815260200190815260200160002081905550630bebc200600560006003815260200190815260200160002081905550630776668060056000600481526020019081526020016000208190555061045d600560006005815260200190815260200160002081905550610936806101176000396000f3006080604052600436106100a4576000357c0100000000000000000000000000000000000000000000000000000000900463ffffffff1680633ba0b9a9146100a957806350f9b6cd146100d457806373db0844146101035780638da5cb5b1461012e5780638ffa56b11461018557806398bc7c87146101c6578063bf0872ef146101fd578063e364310614610295578063f2fde38b146102cc578063fc2650d81461030f575b600080fd5b3480156100b557600080fd5b506100be61033a565b6040518082815260200191505060405180910390f35b3480156100e057600080fd5b506100e9610340565b604051808215151515815260200191505060405180910390f35b34801561010f57600080fd5b50610118610353565b6040518082815260200191505060405180910390f35b34801561013a57600080fd5b50610143610359565b604051808273ffffffffffffffffffffffffffffffffffffffff1673ffffffffffffffffffffffffffffffffffffffff16815260200191505060405180910390f35b34801561019157600080fd5b506101b06004803603810190808035906020019092919050505061037e565b6040518082815260200191505060405180910390f35b3480156101d257600080fd5b506101fb6004803603810190808035906020019092919080359060200190929190505050610396565b005b34801561020957600080fd5b506102786004803603810190808035906020019092919080359060200190929190803590602001908201803590602001908080601f016020809104026020016040519081016040528093929190818152602001838380828437820191505050505050919291929050505061040d565b604051808381526020018281526020019250505060405180910390f35b3480156102a157600080fd5b506102ca60048036038101908080359060200190929190803590602001909291905050506106ec565b005b3480156102d857600080fd5b5061030d600480360381019080803573ffffffffffffffffffffffffffffffffffffffff169060200190929190505050610759565b005b34801561031b57600080fd5b506103246108ae565b6040518082815260200191505060405180910390f35b60035481565b600460009054906101000a900460ff1681565b60015481565b6000809054906101000a900473ffffffffffffffffffffffffffffffffffffffff1681565b60056020528060005260406000206000915090505481565b6000809054906101000a900473ffffffffffffffffffffffffffffffffffffffff1673ffffffffffffffffffffffffffffffffffffffff163373ffffffffffffffffffffffffffffffffffffffff161415156103f157600080fd5b8060056000848152602001908152602001600020819055505050565b6000806000807f46743151805f3dbcc71135d34cca8f83d54ebe57f6f9c5b4c697d5f7a840da71876040518082815260200191505060405180910390a160405180807f657468657265756d0000000000000000000000000000000000000000000000008152506008019050604051809103902060001916856040518082805190602001908083835b6020831015156104ba5780518252602082019150602081019050602083039250610495565b6001836020036101000a0380198251168184511680821785525050505050509050019150506040518091039020600019161415610557576000600154141561050157600080fd5b670de0b6b3a7640000866001540281151561051857fe5b0491507f46743151805f3dbcc71135d34cca8f83d54ebe57f6f9c5b4c697d5f7a840da71826040518082815260200191505060405180910390a161065d565b60405180807f626974636f696e000000000000000000000000000000000000000000000000008152506007019050604051809103902060001916856040518082805190602001908083835b6020831015156105c757805182526020820191506020810190506020830392506105a2565b6001836020036101000a038019825116818451168082178552505050505050905001915050604051809103902060001916141561065c576000600254141561060e57600080fd5b6305f5e100866002540281151561062157fe5b0491507f46743151805f3dbcc71135d34cca8f83d54ebe57f6f9c5b4c697d5f7a840da71826040518082815260200191505060405180910390a15b5b61067a82600560008a8152602001908152602001600020546108b4565b90506005871415156106ad576106a382600560008a8152602001908152602001600020546108b4565b82935093506106e2565b6127106106d2629896808402600560008b8152602001908152602001600020546108ef565b8115156106db57fe5b0482935093505b5050935093915050565b6000809054906101000a900473ffffffffffffffffffffffffffffffffffffffff1673ffffffffffffffffffffffffffffffffffffffff163373ffffffffffffffffffffffffffffffffffffffff1614151561074757600080fd5b80600181905550816002819055505050565b6000809054906101000a900473ffffffffffffffffffffffffffffffffffffffff1673ffffffffffffffffffffffffffffffffffffffff163373ffffffffffffffffffffffffffffffffffffffff161415156107b457600080fd5b600073ffffffffffffffffffffffffffffffffffffffff168173ffffffffffffffffffffffffffffffffffffffff16141515156107f057600080fd5b8073ffffffffffffffffffffffffffffffffffffffff166000809054906101000a900473ffffffffffffffffffffffffffffffffffffffff1673ffffffffffffffffffffffffffffffffffffffff167f8be0079c531659141344cd1fd0a4f28419497f9722a3daafe3b4186f6b6457e060405160405180910390a3806000806101000a81548173ffffffffffffffffffffffffffffffffffffffff021916908373ffffffffffffffffffffffffffffffffffffffff16021790555050565b60025481565b60008060008414156108c957600091506108e8565b82840290508284828115156108da57fe5b041415156108e457fe5b8091505b5092915050565b60008082848115156108fd57fe5b04905080915050929150505600a165627a7a72305820bbc52962844700e83b77195a5719f57aa3968fadcfc48da54e4862a3b71de16a0029",
  "source": "pragma solidity ^0.4.8;\nimport './SafeMath.sol';\nimport \"./Ownable.sol\";\n\ncontract PricingStrategy is Ownable{\n    uint public ETHUSD=580;\n    uint public BTCUSD=9000;\n    uint256 public exchangeRate;\n    bool public called;\n\n    function PricingStrategy(){\n        ///initialize with these values\n        statePrices[0] = 158730*10**3;\n        statePrices[1] = 7215*10**5;\n        statePrices[2] = 3607*10**5;\n        statePrices[3] = 2*10**8;\n        statePrices[4] = 1252*10**5;\n        statePrices[5] = 1117;\n        ////intiialization ends\n    }\n    \n    function getLatest(uint btcusd,uint ethusd) onlyOwner{\n        ETHUSD = ethusd;\n        BTCUSD = btcusd;\n    }\n\n\n    ///this will save the statePrices\n    mapping( uint256 => uint256 ) public statePrices;\n\n    ////this function will make sure that the owner is able to change the values\n    function changeStatePrices(uint state, uint256 price) public onlyOwner{\n        statePrices[state] = price;\n    }\n\n    ///log the value to get the value in usd\n    event logval(uint256 s);\n\n    function totalDiscount(uint state,uint256 contribution,string types) returns (uint256,uint256){\n        uint256 valueInUSD;\n        logval(state);\n      if(keccak256(types)==keccak256(\"ethereum\")){\n            if(ETHUSD==0) throw;\n            valueInUSD = (ETHUSD*contribution)/1000000000000000000;\n            logval(valueInUSD);\n       }else if(keccak256(types)==keccak256(\"bitcoin\")){\n            if(BTCUSD==0) throw;\n            valueInUSD = (BTCUSD*contribution)/100000000;\n            logval(valueInUSD);\n        }\n        uint temp = SafeMath.mul(valueInUSD,statePrices[state]);\n        if(state!=5){\n            return (SafeMath.mul(valueInUSD,statePrices[state]),valueInUSD);\n        }else{\n            return ((SafeMath.div(valueInUSD*10000000,statePrices[state]))/10000,valueInUSD);\n        }\n    }\n    \n    function() payable{\n        throw;\n        ///do not allow any ether  contributions\n    }\n}\n",
  "sourcePath": "/Users/mukuljain/turing/Cevac-contract/contracts/PricingStrategy.sol",
  "compiler": {
    "name": "solc",
    "version": "0.4.24+commit.e67f0147.Emscripten.clang"
  },
  "schemaVersion": "2.0.0",
  "updatedAt": "2018-06-10T05:40:25.010Z"
}