{
  "contractName": "TokenSale",
  "abi": [
    {
      "constant": true,
      "inputs": [
        {
          "name": "",
          "type": "uint256"
        }
      ],
      "name": "stageEndTimestamps",
      "outputs": [
        {
          "name": "",
          "type": "uint256"
        }
      ],
      "payable": false,
      "stateMutability": "view",
      "type": "function"
    },
    {
      "constant": true,
      "inputs": [],
      "name": "valueToBeSent",
      "outputs": [
        {
          "name": "",
          "type": "uint256"
        }
      ],
      "payable": false,
      "stateMutability": "view",
      "type": "function"
    },
    {
      "constant": true,
      "inputs": [],
      "name": "tokenCreationMax",
      "outputs": [
        {
          "name": "",
          "type": "uint256"
        }
      ],
      "payable": false,
      "stateMutability": "view",
      "type": "function"
    },
    {
      "constant": true,
      "inputs": [
        {
          "name": "",
          "type": "uint256"
        }
      ],
      "name": "transactionsClaimed",
      "outputs": [
        {
          "name": "",
          "type": "bool"
        }
      ],
      "payable": false,
      "stateMutability": "view",
      "type": "function"
    },
    {
      "constant": false,
      "inputs": [],
      "name": "unpause",
      "outputs": [],
      "payable": false,
      "stateMutability": "nonpayable",
      "type": "function"
    },
    {
      "constant": true,
      "inputs": [],
      "name": "paused",
      "outputs": [
        {
          "name": "",
          "type": "bool"
        }
      ],
      "payable": false,
      "stateMutability": "view",
      "type": "function"
    },
    {
      "constant": true,
      "inputs": [],
      "name": "currentSupply",
      "outputs": [
        {
          "name": "",
          "type": "uint256"
        }
      ],
      "payable": false,
      "stateMutability": "view",
      "type": "function"
    },
    {
      "constant": true,
      "inputs": [
        {
          "name": "",
          "type": "uint256"
        }
      ],
      "name": "currentSupplyStages",
      "outputs": [
        {
          "name": "",
          "type": "uint256"
        }
      ],
      "payable": false,
      "stateMutability": "view",
      "type": "function"
    },
    {
      "constant": false,
      "inputs": [],
      "name": "pause",
      "outputs": [],
      "payable": false,
      "stateMutability": "nonpayable",
      "type": "function"
    },
    {
      "constant": true,
      "inputs": [],
      "name": "owner",
      "outputs": [
        {
          "name": "",
          "type": "address"
        }
      ],
      "payable": false,
      "stateMutability": "view",
      "type": "function"
    },
    {
      "constant": true,
      "inputs": [],
      "name": "ownerAddr",
      "outputs": [
        {
          "name": "",
          "type": "address"
        }
      ],
      "payable": false,
      "stateMutability": "view",
      "type": "function"
    },
    {
      "constant": true,
      "inputs": [
        {
          "name": "",
          "type": "uint256"
        }
      ],
      "name": "maxSaleableTokens",
      "outputs": [
        {
          "name": "",
          "type": "uint256"
        }
      ],
      "payable": false,
      "stateMutability": "view",
      "type": "function"
    },
    {
      "constant": true,
      "inputs": [],
      "name": "ownerState",
      "outputs": [
        {
          "name": "",
          "type": "uint256"
        }
      ],
      "payable": false,
      "stateMutability": "view",
      "type": "function"
    },
    {
      "constant": true,
      "inputs": [],
      "name": "fundssent",
      "outputs": [
        {
          "name": "",
          "type": "bool"
        }
      ],
      "payable": false,
      "stateMutability": "view",
      "type": "function"
    },
    {
      "constant": true,
      "inputs": [],
      "name": "isOwnerStateSet",
      "outputs": [
        {
          "name": "",
          "type": "bool"
        }
      ],
      "payable": false,
      "stateMutability": "view",
      "type": "function"
    },
    {
      "constant": true,
      "inputs": [],
      "name": "reserve",
      "outputs": [
        {
          "name": "",
          "type": "uint256"
        }
      ],
      "payable": false,
      "stateMutability": "view",
      "type": "function"
    },
    {
      "constant": true,
      "inputs": [],
      "name": "investorCount",
      "outputs": [
        {
          "name": "",
          "type": "uint256"
        }
      ],
      "payable": false,
      "stateMutability": "view",
      "type": "function"
    },
    {
      "constant": false,
      "inputs": [
        {
          "name": "newOwner",
          "type": "address"
        }
      ],
      "name": "transferOwnership",
      "outputs": [],
      "payable": false,
      "stateMutability": "nonpayable",
      "type": "function"
    },
    {
      "constant": true,
      "inputs": [],
      "name": "reserveAddress",
      "outputs": [
        {
          "name": "",
          "type": "address"
        }
      ],
      "payable": false,
      "stateMutability": "view",
      "type": "function"
    },
    {
      "constant": true,
      "inputs": [
        {
          "name": "",
          "type": "uint256"
        }
      ],
      "name": "cumulativeTokens",
      "outputs": [
        {
          "name": "",
          "type": "uint256"
        }
      ],
      "payable": false,
      "stateMutability": "view",
      "type": "function"
    },
    {
      "inputs": [
        {
          "name": "tokenAddress",
          "type": "address"
        },
        {
          "name": "strategy",
          "type": "address"
        }
      ],
      "payable": false,
      "stateMutability": "nonpayable",
      "type": "constructor"
    },
    {
      "payable": true,
      "stateMutability": "payable",
      "type": "fallback"
    },
    {
      "anonymous": false,
      "inputs": [
        {
          "indexed": false,
          "name": "addr",
          "type": "address"
        }
      ],
      "name": "logaddr",
      "type": "event"
    },
    {
      "anonymous": false,
      "inputs": [],
      "name": "Pause",
      "type": "event"
    },
    {
      "anonymous": false,
      "inputs": [],
      "name": "Unpause",
      "type": "event"
    },
    {
      "anonymous": false,
      "inputs": [
        {
          "indexed": true,
          "name": "previousOwner",
          "type": "address"
        },
        {
          "indexed": true,
          "name": "newOwner",
          "type": "address"
        }
      ],
      "name": "OwnershipTransferred",
      "type": "event"
    },
    {
      "constant": false,
      "inputs": [
        {
          "name": "addr",
          "type": "address"
        }
      ],
      "name": "changeOwnerAddr",
      "outputs": [],
      "payable": false,
      "stateMutability": "nonpayable",
      "type": "function"
    },
    {
      "constant": false,
      "inputs": [
        {
          "name": "state",
          "type": "uint256"
        },
        {
          "name": "value",
          "type": "uint256"
        }
      ],
      "name": "changeMaxSaleableTokens",
      "outputs": [],
      "payable": false,
      "stateMutability": "nonpayable",
      "type": "function"
    },
    {
      "constant": false,
      "inputs": [
        {
          "name": "state",
          "type": "uint256"
        },
        {
          "name": "newTimestamp",
          "type": "uint256"
        }
      ],
      "name": "changeEndTimestamps",
      "outputs": [],
      "payable": false,
      "stateMutability": "nonpayable",
      "type": "function"
    },
    {
      "constant": false,
      "inputs": [
        {
          "name": "addr",
          "type": "address"
        },
        {
          "name": "value",
          "type": "uint256"
        }
      ],
      "name": "allottTokensBTC",
      "outputs": [],
      "payable": false,
      "stateMutability": "nonpayable",
      "type": "function"
    },
    {
      "constant": false,
      "inputs": [
        {
          "name": "contributor",
          "type": "address"
        },
        {
          "name": "tokens",
          "type": "uint256"
        }
      ],
      "name": "alottTokensExchange",
      "outputs": [],
      "payable": false,
      "stateMutability": "nonpayable",
      "type": "function"
    },
    {
      "constant": false,
      "inputs": [],
      "name": "finalizeTokenSale",
      "outputs": [],
      "payable": false,
      "stateMutability": "nonpayable",
      "type": "function"
    },
    {
      "constant": false,
      "inputs": [],
      "name": "killContract",
      "outputs": [],
      "payable": false,
      "stateMutability": "nonpayable",
      "type": "function"
    },
    {
      "constant": false,
      "inputs": [],
      "name": "sendTokens",
      "outputs": [],
      "payable": false,
      "stateMutability": "nonpayable",
      "type": "function"
    },
    {
      "constant": false,
      "inputs": [
        {
          "name": "state",
          "type": "uint256"
        }
      ],
      "name": "setOwnerState",
      "outputs": [],
      "payable": false,
      "stateMutability": "nonpayable",
      "type": "function"
    },
    {
      "constant": false,
      "inputs": [],
      "name": "disableOwnerState",
      "outputs": [],
      "payable": false,
      "stateMutability": "nonpayable",
      "type": "function"
    },
    {
      "constant": false,
      "inputs": [],
      "name": "getStateFunding",
      "outputs": [
        {
          "name": "",
          "type": "uint256"
        }
      ],
      "payable": false,
      "stateMutability": "nonpayable",
      "type": "function"
    }
  ],
  "bytecode": "0x608060405260008060146101000a81548160ff021916908315150217905550600860025567028c473a2cc30000600a55670272b2dd8a610000600b5573b0583785f27b7f87535b4c574d3b30928ad3a7eb600d60006101000a81548173ffffffffffffffffffffffffffffffffffffffff021916908373ffffffffffffffffffffffffffffffffffffffff1602179055506000601160006101000a81548160ff0219169083151502179055503480156100b757600080fd5b50604051604080612ef18339810180604052810190808051906020019092919080519060200190929190505050336000806101000a81548173ffffffffffffffffffffffffffffffffffffffff021916908373ffffffffffffffffffffffffffffffffffffffff16021790555081600160006101000a81548173ffffffffffffffffffffffffffffffffffffffff021916908373ffffffffffffffffffffffffffffffffffffffff160217905550600160009054906101000a900473ffffffffffffffffffffffffffffffffffffffff1673ffffffffffffffffffffffffffffffffffffffff16631b3281006040518163ffffffff167c0100000000000000000000000000000000000000000000000000000000028152600401602060405180830381600087803b1580156101eb57600080fd5b505af11580156101ff573d6000803e3d6000fd5b505050506040513d602081101561021557600080fd5b8101908080519060200190929190505050600f8190555080600560006101000a81548173ffffffffffffffffffffffffffffffffffffffff021916908373ffffffffffffffffffffffffffffffffffffffff16021790555067013fbe85edc900006006600080815260200190815260200160002081905550666a94d74f43000060066000600181526020019081526020016000208190555066354a6ba7a1800060066000600281526020019081526020016000208190555066354a6ba7a1800060066000600381526020019081526020016000208190555066354a6ba7a1800060066000600481526020019081526020016000208190555066421499f8d280006006600060058152602001908152602001600020819055506006600080815260200190815260200160002054600760008081526020019081526020016000208190555060066000600181526020019081526020016000205460066000808152602001908152602001600020540160076000600181526020019081526020016000208190555060066000600281526020019081526020016000205460066000600181526020019081526020016000205460066000808152602001908152602001600020540101600760006002815260200190815260200160002081905550600660006003815260200190815260200160002054600660006002815260200190815260200160002054600660006001815260200190815260200160002054600660008081526020019081526020016000205401010160076000600381526020019081526020016000208190555060066000600481526020019081526020016000205460066000600381526020019081526020016000205460066000600281526020019081526020016000205460066000600181526020019081526020016000205460066000808152602001908152602001600020540101010160076000600481526020019081526020016000208190555060066000600581526020019081526020016000205460066000600481526020019081526020016000205460066000600381526020019081526020016000205460066000600281526020019081526020016000205460066000600181526020019081526020016000205460066000808152602001908152602001600020540101010101600760006005815260200190815260200160002081905550600060096000808152602001908152602001600020819055506000600960006001815260200190815260200160002081905550600060096000600281526020019081526020016000208190555060006009600060038152602001908152602001600020819055506000600960006004815260200190815260200160002081905550600060096000600581526020019081526020016000208190555050506128c78061062a6000396000f30060806040526004361061018b576000357c0100000000000000000000000000000000000000000000000000000000900463ffffffff1680631a23a2c6146106535780631b328100146106945780631c02708d146106bf5780631f97c00e146106d65780633050f769146107015780633f3a1ed2146107465780633f4ba83a14610793578063437ccee7146107aa5780635c975abb146107f75780637693488b14610826578063771282f61461083d5780637a607e9b146108685780637fe2eed3146108a95780638456cb59146108e05780638da5cb5b146108f7578063941874a61461094e5780639c675eaa146109655780639f08cf20146109bc578063a28e95a1146109fd578063aa0589c714610a34578063add052b414610a5f578063b5b84f3514610a8a578063c1a49e1d14610ab7578063cab03afc14610ae6578063cd3293de14610b15578063d7e64c0014610b40578063e47112bd14610b6b578063e87fe47c14610b82578063f2fde38b14610bc5578063f79ed94b14610c08578063fe93e71714610c5f575b60008060008060149054906101000a900460ff16156101a957600080fd5b6000341115156101b857600080fd5b6101c0610ca0565b9250600560009054906101000a900473ffffffffffffffffffffffffffffffffffffffff1673ffffffffffffffffffffffffffffffffffffffff1663bf0872ef84346040518363ffffffff167c01000000000000000000000000000000000000000000000000000000000281526004018083815260200182815260200180602001828103825260088152602001807f657468657265756d00000000000000000000000000000000000000000000000081525060200193505050506040805180830381600087803b15801561029357600080fd5b505af11580156102a7573d6000803e3d6000fd5b505050506040513d60408110156102bd57600080fd5b810190808051906020019092919080519060200190929190505050915091506102e86004548361172f565b6004819055506102f6610ca0565b9250600a546103076004548461172f565b1115151561031457600080fd5b600760008481526020019081526020016000205461034560096000868152602001908152602001600020548461172f565b1115151561035257600080fd5b61036f60096000858152602001908152602001600020548361172f565b60096000858152602001908152602001600020819055506006831415151561039657600080fd5b600783141515156103a657600080fd5b600160009054906101000a900473ffffffffffffffffffffffffffffffffffffffff1673ffffffffffffffffffffffffffffffffffffffff1663218a766733846040518363ffffffff167c0100000000000000000000000000000000000000000000000000000000028152600401808373ffffffffffffffffffffffffffffffffffffffff1673ffffffffffffffffffffffffffffffffffffffff16815260200182815260200192505050600060405180830381600087803b15801561046b57600080fd5b505af115801561047f573d6000803e3d6000fd5b50505050600160009054906101000a900473ffffffffffffffffffffffffffffffffffffffff1673ffffffffffffffffffffffffffffffffffffffff16631186560e346040518263ffffffff167c010000000000000000000000000000000000000000000000000000000002815260040180828152602001915050600060405180830381600087803b15801561051457600080fd5b505af1158015610528573d6000803e3d6000fd5b50505050600160009054906101000a900473ffffffffffffffffffffffffffffffffffffffff1673ffffffffffffffffffffffffffffffffffffffff1663525426fd826040518263ffffffff167c010000000000000000000000000000000000000000000000000000000002815260040180828152602001915050600060405180830381600087803b1580156105bd57600080fd5b505af11580156105d1573d6000803e3d6000fd5b50505050600d60009054906101000a900473ffffffffffffffffffffffffffffffffffffffff1673ffffffffffffffffffffffffffffffffffffffff166108fc3073ffffffffffffffffffffffffffffffffffffffff16319081150290604051600060405180830381858888f19350505050151561064e57600080fd5b505050005b34801561065f57600080fd5b5061067e6004803603810190808035906020019092919050505061174d565b6040518082815260200191505060405180910390f35b3480156106a057600080fd5b506106a9611765565b6040518082815260200191505060405180910390f35b3480156106cb57600080fd5b506106d461176b565b005b3480156106e257600080fd5b506106eb611801565b6040518082815260200191505060405180910390f35b34801561070d57600080fd5b5061072c60048036038101908080359060200190929190505050611807565b604051808215151515815260200191505060405180910390f35b34801561075257600080fd5b50610791600480360381019080803573ffffffffffffffffffffffffffffffffffffffff16906020019092919080359060200190929190505050611827565b005b34801561079f57600080fd5b506107a8611a3f565b005b3480156107b657600080fd5b506107f5600480360381019080803573ffffffffffffffffffffffffffffffffffffffff16906020019092919080359060200190929190505050611afd565b005b34801561080357600080fd5b5061080c61204d565b604051808215151515815260200191505060405180910390f35b34801561083257600080fd5b5061083b612060565b005b34801561084957600080fd5b50610852612177565b6040518082815260200191505060405180910390f35b34801561087457600080fd5b506108936004803603810190808035906020019092919050505061217d565b6040518082815260200191505060405180910390f35b3480156108b557600080fd5b506108de6004803603810190808035906020019092919080359060200190929190505050612195565b005b3480156108ec57600080fd5b506108f561220c565b005b34801561090357600080fd5b5061090c6122cc565b604051808273ffffffffffffffffffffffffffffffffffffffff1673ffffffffffffffffffffffffffffffffffffffff16815260200191505060405180910390f35b34801561095a57600080fd5b506109636122f1565b005b34801561097157600080fd5b5061097a612369565b604051808273ffffffffffffffffffffffffffffffffffffffff1673ffffffffffffffffffffffffffffffffffffffff16815260200191505060405180910390f35b3480156109c857600080fd5b506109e76004803603810190808035906020019092919050505061238f565b6040518082815260200191505060405180910390f35b348015610a0957600080fd5b50610a3260048036038101908080359060200190929190803590602001909291905050506123a7565b005b348015610a4057600080fd5b50610a4961241e565b6040518082815260200191505060405180910390f35b348015610a6b57600080fd5b50610a74610ca0565b6040518082815260200191505060405180910390f35b348015610a9657600080fd5b50610ab560048036038101908080359060200190929190505050612424565b005b348015610ac357600080fd5b50610acc6124a4565b604051808215151515815260200191505060405180910390f35b348015610af257600080fd5b50610afb6124b7565b604051808215151515815260200191505060405180910390f35b348015610b2157600080fd5b50610b2a6124ca565b6040518082815260200191505060405180910390f35b348015610b4c57600080fd5b50610b556124d0565b6040518082815260200191505060405180910390f35b348015610b7757600080fd5b50610b806124d6565b005b348015610b8e57600080fd5b50610bc3600480360381019080803573ffffffffffffffffffffffffffffffffffffffff169060200190929190505050612669565b005b348015610bd157600080fd5b50610c06600480360381019080803573ffffffffffffffffffffffffffffffffffffffff169060200190929190505050612708565b005b348015610c1457600080fd5b50610c1d61285d565b604051808273ffffffffffffffffffffffffffffffffffffffff1673ffffffffffffffffffffffffffffffffffffffff16815260200191505060405180910390f35b348015610c6b57600080fd5b50610c8a60048036038101908080359060200190929190505050612883565b6040518082815260200191505060405180910390f35b6000601160009054906101000a900460ff1615610cc157601254905061172c565b600160009054906101000a900473ffffffffffffffffffffffffffffffffffffffff1673ffffffffffffffffffffffffffffffffffffffff1663d648a6476040518163ffffffff167c0100000000000000000000000000000000000000000000000000000000028152600401602060405180830381600087803b158015610d4757600080fd5b505af1158015610d5b573d6000803e3d6000fd5b505050506040513d6020811015610d7157600080fd5b810190808051906020019092919050505042118015610da55750600760008081526020019081526020016000205460045411155b15610db3576000905061172c565b600160009054906101000a900473ffffffffffffffffffffffffffffffffffffffff1673ffffffffffffffffffffffffffffffffffffffff1663d648a6476040518163ffffffff167c0100000000000000000000000000000000000000000000000000000000028152600401602060405180830381600087803b158015610e3957600080fd5b505af1158015610e4d573d6000803e3d6000fd5b505050506040513d6020811015610e6357600080fd5b810190808051906020019092919050505042118015610e98575060076000600181526020019081526020016000205460045411155b15610ea6576001905061172c565b600160009054906101000a900473ffffffffffffffffffffffffffffffffffffffff1673ffffffffffffffffffffffffffffffffffffffff1663d648a6476040518163ffffffff167c0100000000000000000000000000000000000000000000000000000000028152600401602060405180830381600087803b158015610f2c57600080fd5b505af1158015610f40573d6000803e3d6000fd5b505050506040513d6020811015610f5657600080fd5b810190808051906020019092919050505042118015610f8b575060076000600281526020019081526020016000205460045411155b15610f99576002905061172c565b600160009054906101000a900473ffffffffffffffffffffffffffffffffffffffff1673ffffffffffffffffffffffffffffffffffffffff1663d648a6476040518163ffffffff167c0100000000000000000000000000000000000000000000000000000000028152600401602060405180830381600087803b15801561101f57600080fd5b505af1158015611033573d6000803e3d6000fd5b505050506040513d602081101561104957600080fd5b81019080805190602001909291905050504211801561107e575060076000600381526020019081526020016000205460045411155b1561108c576003905061172c565b600160009054906101000a900473ffffffffffffffffffffffffffffffffffffffff1673ffffffffffffffffffffffffffffffffffffffff1663d648a6476040518163ffffffff167c0100000000000000000000000000000000000000000000000000000000028152600401602060405180830381600087803b15801561111257600080fd5b505af1158015611126573d6000803e3d6000fd5b505050506040513d602081101561113c57600080fd5b810190808051906020019092919050505042118015611171575060076000600481526020019081526020016000205460045411155b1561117f576004905061172c565b600160009054906101000a900473ffffffffffffffffffffffffffffffffffffffff1673ffffffffffffffffffffffffffffffffffffffff1663d648a6476040518163ffffffff167c0100000000000000000000000000000000000000000000000000000000028152600401602060405180830381600087803b15801561120557600080fd5b505af1158015611219573d6000803e3d6000fd5b505050506040513d602081101561122f57600080fd5b810190808051906020019092919050505042118015611264575060076000600581526020019081526020016000205460045411155b15611272576005905061172c565b600160009054906101000a900473ffffffffffffffffffffffffffffffffffffffff1673ffffffffffffffffffffffffffffffffffffffff166391b43d136040518163ffffffff167c0100000000000000000000000000000000000000000000000000000000028152600401602060405180830381600087803b1580156112f857600080fd5b505af115801561130c573d6000803e3d6000fd5b505050506040513d602081101561132257600080fd5b8101908080519060200190929190505050421180156114c05750600160009054906101000a900473ffffffffffffffffffffffffffffffffffffffff1673ffffffffffffffffffffffffffffffffffffffff1663ded317a86040518163ffffffff167c0100000000000000000000000000000000000000000000000000000000028152600401602060405180830381600087803b1580156113c257600080fd5b505af11580156113d6573d6000803e3d6000fd5b505050506040513d60208110156113ec57600080fd5b8101908080519060200190929190505050600160009054906101000a900473ffffffffffffffffffffffffffffffffffffffff1673ffffffffffffffffffffffffffffffffffffffff1663912148416040518163ffffffff167c0100000000000000000000000000000000000000000000000000000000028152600401602060405180830381600087803b15801561148357600080fd5b505af1158015611497573d6000803e3d6000fd5b505050506040513d60208110156114ad57600080fd5b8101908080519060200190929190505050105b156114ce576007905061172c565b600160009054906101000a900473ffffffffffffffffffffffffffffffffffffffff1673ffffffffffffffffffffffffffffffffffffffff166391b43d136040518163ffffffff167c0100000000000000000000000000000000000000000000000000000000028152600401602060405180830381600087803b15801561155457600080fd5b505af1158015611568573d6000803e3d6000fd5b505050506040513d602081101561157e57600080fd5b81019080805190602001909291905050504211801561171d5750600160009054906101000a900473ffffffffffffffffffffffffffffffffffffffff1673ffffffffffffffffffffffffffffffffffffffff1663ded317a86040518163ffffffff167c0100000000000000000000000000000000000000000000000000000000028152600401602060405180830381600087803b15801561161e57600080fd5b505af1158015611632573d6000803e3d6000fd5b505050506040513d602081101561164857600080fd5b8101908080519060200190929190505050600160009054906101000a900473ffffffffffffffffffffffffffffffffffffffff1673ffffffffffffffffffffffffffffffffffffffff1663912148416040518163ffffffff167c0100000000000000000000000000000000000000000000000000000000028152600401602060405180830381600087803b1580156116df57600080fd5b505af11580156116f3573d6000803e3d6000fd5b505050506040513d602081101561170957600080fd5b810190808051906020019092919050505010155b1561172b576006905061172c565b5b90565b600080828401905083811015151561174357fe5b8091505092915050565b60086020528060005260406000206000915090505481565b600f5481565b6000809054906101000a900473ffffffffffffffffffffffffffffffffffffffff1673ffffffffffffffffffffffffffffffffffffffff163373ffffffffffffffffffffffffffffffffffffffff161415156117c657600080fd5b600d60009054906101000a900473ffffffffffffffffffffffffffffffffffffffff1673ffffffffffffffffffffffffffffffffffffffff16ff5b600a5481565b600e6020528060005260406000206000915054906101000a900460ff1681565b60008060009054906101000a900473ffffffffffffffffffffffffffffffffffffffff1673ffffffffffffffffffffffffffffffffffffffff163373ffffffffffffffffffffffffffffffffffffffff1614151561188457600080fd5b6118906004548361172f565b60048190555061189e610ca0565b905060076000828152602001908152602001600020546118d160096000848152602001908152602001600020548461172f565b111515156118de57600080fd5b600a546118ed6004548461172f565b111515156118fa57600080fd5b6006811415151561190a57600080fd5b6007811415151561191a57600080fd5b60008211151561192957600080fd5b600160009054906101000a900473ffffffffffffffffffffffffffffffffffffffff1673ffffffffffffffffffffffffffffffffffffffff1663218a766784846040518363ffffffff167c0100000000000000000000000000000000000000000000000000000000028152600401808373ffffffffffffffffffffffffffffffffffffffff1673ffffffffffffffffffffffffffffffffffffffff16815260200182815260200192505050600060405180830381600087803b1580156119ee57600080fd5b505af1158015611a02573d6000803e3d6000fd5b50505050611a2360096000838152602001908152602001600020548361172f565b6009600083815260200190815260200160002081905550505050565b6000809054906101000a900473ffffffffffffffffffffffffffffffffffffffff1673ffffffffffffffffffffffffffffffffffffffff163373ffffffffffffffffffffffffffffffffffffffff16141515611a9a57600080fd5b600060149054906101000a900460ff161515611ab557600080fd5b60008060146101000a81548160ff0219169083151502179055507f7805862f689e2f13df9f062ff482ad3ad112aca9e0847911ed832e158c525b3360405160405180910390a1565b60008060008060009054906101000a900473ffffffffffffffffffffffffffffffffffffffff1673ffffffffffffffffffffffffffffffffffffffff163373ffffffffffffffffffffffffffffffffffffffff16141515611b5d57600080fd5b600160009054906101000a900473ffffffffffffffffffffffffffffffffffffffff1673ffffffffffffffffffffffffffffffffffffffff1663bb5d40eb6040518163ffffffff167c0100000000000000000000000000000000000000000000000000000000028152600401602060405180830381600087803b158015611be357600080fd5b505af1158015611bf7573d6000803e3d6000fd5b505050506040513d6020811015611c0d57600080fd5b81019080805190602001909291905050501515611c2957600080fd5b611c31610ca0565b9250600560009054906101000a900473ffffffffffffffffffffffffffffffffffffffff1673ffffffffffffffffffffffffffffffffffffffff1663bf0872ef84866040518363ffffffff167c01000000000000000000000000000000000000000000000000000000000281526004018083815260200182815260200180602001828103825260078152602001807f626974636f696e0000000000000000000000000000000000000000000000000081525060200193505050506040805180830381600087803b158015611d0457600080fd5b505af1158015611d18573d6000803e3d6000fd5b505050506040513d6040811015611d2e57600080fd5b81019080805190602001909291908051906020019092919050505091509150611d596004548361172f565b600481905550611d67610ca0565b92506007600084815260200190815260200160002054611d9a60096000868152602001908152602001600020548461172f565b11151515611da757600080fd5b600a54611db66004548461172f565b11151515611dc357600080fd5b60068314151515611dd357600080fd5b60078314151515611de357600080fd5b611e0060096000858152602001908152602001600020548361172f565b6009600085815260200190815260200160002081905550600160009054906101000a900473ffffffffffffffffffffffffffffffffffffffff1673ffffffffffffffffffffffffffffffffffffffff1663218a766786846040518363ffffffff167c0100000000000000000000000000000000000000000000000000000000028152600401808373ffffffffffffffffffffffffffffffffffffffff1673ffffffffffffffffffffffffffffffffffffffff16815260200182815260200192505050600060405180830381600087803b158015611edc57600080fd5b505af1158015611ef0573d6000803e3d6000fd5b50505050600160009054906101000a900473ffffffffffffffffffffffffffffffffffffffff1673ffffffffffffffffffffffffffffffffffffffff1663375e88bd856040518263ffffffff167c010000000000000000000000000000000000000000000000000000000002815260040180828152602001915050600060405180830381600087803b158015611f8557600080fd5b505af1158015611f99573d6000803e3d6000fd5b50505050600160009054906101000a900473ffffffffffffffffffffffffffffffffffffffff1673ffffffffffffffffffffffffffffffffffffffff1663525426fd826040518263ffffffff167c010000000000000000000000000000000000000000000000000000000002815260040180828152602001915050600060405180830381600087803b15801561202e57600080fd5b505af1158015612042573d6000803e3d6000fd5b505050505050505050565b600060149054906101000a900460ff1681565b60008060009054906101000a900473ffffffffffffffffffffffffffffffffffffffff1673ffffffffffffffffffffffffffffffffffffffff163373ffffffffffffffffffffffffffffffffffffffff161415156120bd57600080fd5b6120c5610ca0565b90506006811415156120d657600080fd5b600160009054906101000a900473ffffffffffffffffffffffffffffffffffffffff1673ffffffffffffffffffffffffffffffffffffffff166323cc75a86040518163ffffffff167c0100000000000000000000000000000000000000000000000000000000028152600401600060405180830381600087803b15801561215c57600080fd5b505af1158015612170573d6000803e3d6000fd5b5050505050565b60045481565b60096020528060005260406000206000915090505481565b6000809054906101000a900473ffffffffffffffffffffffffffffffffffffffff1673ffffffffffffffffffffffffffffffffffffffff163373ffffffffffffffffffffffffffffffffffffffff161415156121f057600080fd5b8060066000848152602001908152602001600020819055505050565b6000809054906101000a900473ffffffffffffffffffffffffffffffffffffffff1673ffffffffffffffffffffffffffffffffffffffff163373ffffffffffffffffffffffffffffffffffffffff1614151561226757600080fd5b600060149054906101000a900460ff1615151561228357600080fd5b6001600060146101000a81548160ff0219169083151502179055507f6985a02210a168e66602d3235cb6db0e70f92b3ba4d376a33c0f3d9434bff62560405160405180910390a1565b6000809054906101000a900473ffffffffffffffffffffffffffffffffffffffff1681565b6000809054906101000a900473ffffffffffffffffffffffffffffffffffffffff1673ffffffffffffffffffffffffffffffffffffffff163373ffffffffffffffffffffffffffffffffffffffff1614151561234c57600080fd5b6000601160006101000a81548160ff021916908315150217905550565b600d60009054906101000a900473ffffffffffffffffffffffffffffffffffffffff1681565b60066020528060005260406000206000915090505481565b6000809054906101000a900473ffffffffffffffffffffffffffffffffffffffff1673ffffffffffffffffffffffffffffffffffffffff163373ffffffffffffffffffffffffffffffffffffffff1614151561240257600080fd5b8060086000848152602001908152602001600020819055505050565b60125481565b6000809054906101000a900473ffffffffffffffffffffffffffffffffffffffff1673ffffffffffffffffffffffffffffffffffffffff163373ffffffffffffffffffffffffffffffffffffffff1614151561247f57600080fd5b806012819055506001601160006101000a81548160ff02191690831515021790555050565b600360009054906101000a900460ff1681565b601160009054906101000a900460ff1681565b600b5481565b60105481565b6000809054906101000a900473ffffffffffffffffffffffffffffffffffffffff1673ffffffffffffffffffffffffffffffffffffffff163373ffffffffffffffffffffffffffffffffffffffff1614151561253157600080fd5b600360009054906101000a900460ff161561254b57600080fd5b600160009054906101000a900473ffffffffffffffffffffffffffffffffffffffff1673ffffffffffffffffffffffffffffffffffffffff1663218a7667600c60009054906101000a900473ffffffffffffffffffffffffffffffffffffffff16600b546040518363ffffffff167c0100000000000000000000000000000000000000000000000000000000028152600401808373ffffffffffffffffffffffffffffffffffffffff1673ffffffffffffffffffffffffffffffffffffffff16815260200182815260200192505050600060405180830381600087803b15801561263457600080fd5b505af1158015612648573d6000803e3d6000fd5b505050506001600360006101000a81548160ff021916908315150217905550565b6000809054906101000a900473ffffffffffffffffffffffffffffffffffffffff1673ffffffffffffffffffffffffffffffffffffffff163373ffffffffffffffffffffffffffffffffffffffff161415156126c457600080fd5b80600d60006101000a81548173ffffffffffffffffffffffffffffffffffffffff021916908373ffffffffffffffffffffffffffffffffffffffff16021790555050565b6000809054906101000a900473ffffffffffffffffffffffffffffffffffffffff1673ffffffffffffffffffffffffffffffffffffffff163373ffffffffffffffffffffffffffffffffffffffff1614151561276357600080fd5b600073ffffffffffffffffffffffffffffffffffffffff168173ffffffffffffffffffffffffffffffffffffffff161415151561279f57600080fd5b8073ffffffffffffffffffffffffffffffffffffffff166000809054906101000a900473ffffffffffffffffffffffffffffffffffffffff1673ffffffffffffffffffffffffffffffffffffffff167f8be0079c531659141344cd1fd0a4f28419497f9722a3daafe3b4186f6b6457e060405160405180910390a3806000806101000a81548173ffffffffffffffffffffffffffffffffffffffff021916908373ffffffffffffffffffffffffffffffffffffffff16021790555050565b600c60009054906101000a900473ffffffffffffffffffffffffffffffffffffffff1681565b600760205280600052604060002060009150905054815600a165627a7a723058206f5015255e38f59f682d1a8596885fa560027386d1fae92615dc817597b535850029",
  "source": "pragma solidity ^0.4.10;\nimport './CevacToken.sol';\nimport './Pausable.sol';\nimport './SafeMath.sol';\nimport './PricingStrategy.sol';\nimport './Ownable.sol';\n\ncontract TokenSale is Ownable,Pausable{\n\n//----------------------------------------------------------------------------------------------------------\n    ////CevacToken token\n    CevacToken token;\n    uint decimals = 8;\n    bool public fundssent;\n    uint256 public currentSupply;\n    PricingStrategy pricingstrategy;\n\n    ///ther mapping to hold the endTimestamps of the stages\n    mapping(uint256 => uint256) public maxSaleableTokens;\n\n\n    ///the mapping to hold the states and the cumulative tokens sold\n    mapping(uint256 => uint256) public cumulativeTokens;\n\n    ///the mapping to hold the max tokens saleable from stages\n    mapping(uint256 => uint256) public stageEndTimestamps;\n\n    //this will hold that what is the current supply of the tokens so that they do not go over the max supply\n    ///the mapping to hold the max tokens saleable from stages\n    mapping(uint256 => uint256) public currentSupplyStages;\n    \n\n//----------------------------------------------------------------------------------------------------------\n    uint256 public tokenCreationMax= 1836 * (10**6) * 10**8;//TODO\n\n    ///reserve\n    uint256 public reserve = 1764000000 * 10**8;\n\n    ///reserve address\n    address public reserveAddress;\n\n\n    ///the address of owner to recieve the token\n    address public ownerAddr = 0xB0583785f27B7f87535B4c574D3B30928aD3A7eb ; //to be filled \n\n    ///the function to change the ownerAddr\n    ///this is the address that will recieve the tokens\n    function changeOwnerAddr(address addr) public onlyOwner{\n        ownerAddr = addr;\n    }\n\n//----------------------------------------------------------------------------------------------------------\n//the function to change the maxSaleable tokens\n    function changeMaxSaleableTokens(uint256 state, uint256 value) public onlyOwner{\n    maxSaleableTokens[state] = value;\n\n    }\n   \n//----------------------------------------------------------------------------------------------------------\n    //the function to change the maxSaleable tokens\n    function changeEndTimestamps(uint256 state, uint256 newTimestamp) public onlyOwner{\n        stageEndTimestamps[state] = newTimestamp;\n    }\n\n//----------------------------------------------------------------------------------------------------------\n\n ///this will be mapping against the hashes and whether they have been claimed or not\n   mapping(uint256 => bool) public transactionsClaimed;\n   uint256 public valueToBeSent;\n   uint public investorCount;\n\n//----------------------------------------------------------------------------------------------------------\n\n    ///the event log to log out the address of the multisig wallet\n    event logaddr(address addr);\n\n//----------------------------------------------------------------------------------------------------------\n    //the constructor function\n    function TokenSale(address tokenAddress,address strategy){\n        //require(bytes(_name).length > 0 && bytes(_symbol).length > 0); // validate input\n        token = CevacToken(tokenAddress);\n        valueToBeSent = token.valueToBeSent();\n        pricingstrategy = PricingStrategy(strategy);\n        ////MAX Tokens for private sale\n\n        maxSaleableTokens[0] = 9 * (10**8) * (10**8);\n        ///MAX tokens for presale \n        maxSaleableTokens[1] = 3 * (10**8) * (10**8);\n\n        ///MAX tokens for the public sale\n        maxSaleableTokens[2] = 15 * (10**7) * (10**8);\n        maxSaleableTokens[3] = 15 * (10**7) * (10**8);\n        maxSaleableTokens[4] = 15 * (10**7) * (10**8);\n        maxSaleableTokens[5] = 186 * (10**6) * (10**8);\n\n\n        cumulativeTokens[0] = maxSaleableTokens[0];\n        cumulativeTokens[1] = maxSaleableTokens[0]+maxSaleableTokens[1];\n        cumulativeTokens[2] = maxSaleableTokens[0]+maxSaleableTokens[1] + maxSaleableTokens[2];\n        cumulativeTokens[3] = maxSaleableTokens[0]+maxSaleableTokens[1] + maxSaleableTokens[2]+maxSaleableTokens[3];\n        cumulativeTokens[4] = maxSaleableTokens[0]+maxSaleableTokens[1] + maxSaleableTokens[2]+maxSaleableTokens[3]+maxSaleableTokens[4];\n        cumulativeTokens[5] = maxSaleableTokens[0]+maxSaleableTokens[1] + maxSaleableTokens[2]+maxSaleableTokens[3]+maxSaleableTokens[4]+maxSaleableTokens[5];\n\n        ///current sales\n        currentSupplyStages[0] = 0; \n        currentSupplyStages[1] = 0;\n        currentSupplyStages[2] = 0;\n        currentSupplyStages[3] = 0;\n        currentSupplyStages[4] = 0;\n        currentSupplyStages[5] = 0;\n\n    }\n//----------------------------------------------------------------------------------------------------------\n    /**\n        Payable function to send the ether funds\n    **/\n    function() external payable stopInEmergency{\n        // require(token.isValid());\n        require(msg.value>0);\n        uint currentState = getStateFunding();\n        var (tokens,usd) = pricingstrategy.totalDiscount(currentState,msg.value,\"ethereum\");\n        currentSupply = SafeMath.add(currentSupply,tokens);\n        currentState = getStateFunding();\n        require(SafeMath.add(currentSupply,tokens)<=tokenCreationMax);\n        require(SafeMath.add(currentSupplyStages[currentState],tokens)<=cumulativeTokens[currentState]);\n        currentSupplyStages[currentState] = SafeMath.add(currentSupplyStages[currentState],tokens);\n        require(currentState!=6);\n        require(currentState!=7);\n        token.addToBalances(msg.sender,tokens);\n        token.increaseEthRaised(msg.value);\n        token.increaseUSDRaised(usd);\n        if(!ownerAddr.send(this.balance))throw;\n    }\n\n\n//----------------------------------------------------------------------------------------------------------\n    ///function to allot tokens to address\n    function allottTokensBTC(address addr,uint256 value) public onlyOwner{\n        require(token.isValid());\n        uint currentState = getStateFunding();\n        var (tokens,usd) = pricingstrategy.totalDiscount(currentState,value,\"bitcoin\");\n        currentSupply = SafeMath.add(currentSupply,tokens);\n        currentState = getStateFunding();\n        require(SafeMath.add(currentSupplyStages[currentState],tokens)<=cumulativeTokens[currentState]);\n        require(SafeMath.add(currentSupply,tokens)<=tokenCreationMax);\n        require(currentState!=6);\n        require(currentState!=7);\n        currentSupplyStages[currentState] = SafeMath.add(currentSupplyStages[currentState],tokens);\n        token.addToBalances(addr,tokens);\n        token.increaseBTCRaised(value);\n        token.increaseUSDRaised(usd);\n    }\n\n//----------------------------------------------------------------------------------------------------------\n\n    ///function to alott tokens by the owner\n    function alottTokensExchange(address contributor,uint256 tokens) public onlyOwner{\n        currentSupply = SafeMath.add(currentSupply,tokens);\n        uint currentState = getStateFunding();\n        require(SafeMath.add(currentSupplyStages[currentState],tokens)<=cumulativeTokens[currentState]);\n        require(SafeMath.add(currentSupply,tokens)<=tokenCreationMax);\n        require(currentState!=6);\n        require(currentState!=7);\n        require(tokens>0);\n        token.addToBalances(contributor,tokens);\n        currentSupplyStages[currentState] = SafeMath.add(currentSupplyStages[currentState],tokens);\n\n    }\n//----------------------------------------------------------------------------------------------------------\n\n    /////finalize the token sale\n    function finalizeTokenSale() public onlyOwner{\n        uint currentState = getStateFunding();\n        if(currentState!=6) throw;\n        token.finalizeICO();\n    }\n//----------------------------------------------------------------------------------------------------------\n\n    ///kill the contract in case of change of functionality\n    function killContract() public onlyOwner{\n        selfdestruct(ownerAddr);\n    }\n//----------------------------------------------------------------------------------------------------------\n\n    ///send tokens\n    function sendTokens() public onlyOwner{\n        if(fundssent) throw;\n        token.addToBalances(reserveAddress,reserve);\n        fundssent = true;\n    }\n//----------------------------------------------------------------------------------------------------------\n    /**\n    check if the owner state is set ot not\n    **/\n    bool public isOwnerStateSet = false;\n    uint public ownerState;\n\n    /**\n    The function to set the owner defined state \n    **/\n    function setOwnerState(uint state) public onlyOwner{\n        ownerState = state;\n        isOwnerStateSet = true;\n    }\n\n    /**\n    The function for the owner to disable the owner state\n    **/\n    function disableOwnerState() public onlyOwner{\n        isOwnerStateSet = false;\n    }\n\n    /**\n    The function to get the state of the funding for the ico\n    **/\n    function getStateFunding() returns (uint){\n       if(isOwnerStateSet) return ownerState;\n       if(now>token.fundingStartBlock() && currentSupply<=cumulativeTokens[0]) return 0;\n       if(now>token.fundingStartBlock() && currentSupply<=cumulativeTokens[1]) return 1;\n       if(now>token.fundingStartBlock() && currentSupply<=cumulativeTokens[2]) return 2;\n       if(now>token.fundingStartBlock() && currentSupply<=cumulativeTokens[3]) return 3;\n       if(now>token.fundingStartBlock() && currentSupply<=cumulativeTokens[4]) return 4;\n       if(now>token.fundingStartBlock() && currentSupply<=cumulativeTokens[5]) return 5;\n       if(now>token.fundingEndBlock() && token.usdraised()<token.minCapUSD()) return 7;\n       if(now>token.fundingEndBlock() && token.usdraised()>=token.minCapUSD()) return 6;\n    }\n\n\n\n    \n\n}",
  "sourcePath": "/Users/mukuljain/turing/Cevac-contract/contracts/TokenSale.sol",
  "compiler": {
    "name": "solc",
    "version": "0.4.24+commit.e67f0147.Emscripten.clang"
  },
  "schemaVersion": "2.0.0",
  "updatedAt": "2018-06-10T05:40:25.040Z"
}